S01F0000736D6172742D69727269676174696F6E2D73797374656D2E73726563A7
S11300000C943B000C9458000C9458000C94580029
S11300100C9458000C9458000C9458000C945800FC
S11300200C9458000C9458000C9458000C945800EC
S11300300C9458000C9458000C9458000C945800DC
S11300400C9458000C9458000C9458000C945800CC
S11300500C9458000C9458000C9458000C945800BC
S11300600C9458000C945800AE01B701C301CF01A1
S1130070DB01E701F30111241FBECFEFD8E0DEBF9F
S1130080CDBF11E0A0E0B1E0E6EBF7E002C00590DF
S11300900D92AE36B107D9F721E0AEE6B1E001C06A
S11300A01D92AF36B207E1F70E94F2000C94D90317
S11300B00C940000CF93DF931F92CDB7DEB7FC0101
S11300C03081232F237099819C7F922B232F269597
S11300D0269526952770220F220F937E36FB332711
S11300E030F9922B30FB95F99F739983EF2B31F004
S11300F0CE0101960E94B50280E001C081E00F901C
S1130100DF91CF910895CF93DF931F92CDB7DEB7E0
S1130110FC013081232F237099819C7F922B232F04
S11301202695269526952770220F220F937E36FB5F
S1130130332730F9922B30FB95F99F739983EF2B7A
S113014039F061E0CE0101960E94760280E001C0A0
S113015081E00F90DF91CF910895CF93DF931F92A9
S1130160CDB7DEB7FC013081232F237099819C7FAA
S1130170922B232F2695269526952770220F220F42
S1130180937E36FB332730F9922B30FB95F99F731E
S11301909983EF2B39F060E0CE0101960E9476023C
S11301A080E001C081E00F90DF91CF9108958EE649
S11301B091E00E94B50283E091E00E94B50281E0E3
S11301C091E00E94B50282E091E00E94B50261E0F4
S11301D082E00E94780180E091E00E945A000E942F
S11301E046030895CF93DF9300D01F92CDB7DEB7B7
S11301F00E94D700BE016F5F7F4F83E091E00E94B1
S11302002203BE016E5F7F4F84E00E94010286E1FB
S113021091E00E946A038A819B810E947D038AE0A7
S11302200E9462038981811147C08A819B819C015C
S1130230245B31402C37310570F482E391E00E9455
S11302406A0361E08EE691E00E94760280E091E02C
S11302500E94830043C09C012C5331402837310550
S113026070F460E08EE691E00E9476028FE391E004
S11302700E946A0380E091E00E94AD002FC0835C7D
S113028091098937910570F460E08EE691E00E944F
S113029076028CE491E00E946A0380E091E00E947F
S11302A0AD001CC080E091E00E94AD0060E08EE6ED
S11302B091E00E94760212C060E082E091E00E9428
S11302C0760260E08EE691E00E9476028EE591E08F
S11302D00E946A0380E091E00E9483002FE382E49D
S11302E09FE0215080409040E1F700C0000082CFA1
S11302F0E82FAAE7B0E08C9180688C93613071F0AC
S113030018F06230A9F01EC0ACE7B0E08C918F7B8E
S11303108C938C918F778C9380E015C0ACE7B0E020
S11303208C9180648C938C918F778C9380E00BC03C
S1130330ACE7B0E08C9180648C938C9180688C9352
S113034080E001C081E04E2F50E04730510508F0B5
S113035056C0FA01EC5CFF4F0C949E03EAE7F0E010
S113036090819B7F908390819D7F90830895EAE79D
S1130370F0E090819B7F9083908192609083908144
S11303809E7F90830895EAE7F0E090819B7F9083BD
S11303909081926090839081916090830895EAE7C0
S11303A0F0E090819460908390819D7F9083908110
S11303B09E7F90830895EAE7F0E0908194609083B3
S11303C090819D7F90839081916090830895EAE766
S11303D0F0E090819460908390819260908390810A
S11303E09E7F90830895EAE7F0E090819460908383
S11303F0908192609083908191609083089581E0D0
S113040008956115710509F46FC0823039F128F43B
S1130410882351F08130A9F055C08430C9F158F1D6
S1130420853009F442C04EC0ECE7F0E080818E7F55
S1130430808380818D7F808380818B7F808380E037
S113044042C0ECE7F0E080818160808380818D7F11
S1130450808380818B7F808380E035C0ECE7F0E08F
S113046080818E7F808380818260808380818B7F86
S1130470808380E028C0ECE7F0E0808181608083A5
S113048080818260808380818B7F808380E01BC039
S1130490ECE7F0E080818E7F808380818D7F808394
S11304A080818460808380E00EC0ECE7F0E080818E
S11304B08160808380818D7F80838081846080835C
S11304C080E001C081E0EAE7F0E0908190649083ED
S11304D090917A0096FDFCCF2091780030917900BC
S11304E0FB0131832083089581E008950097C9F1C9
S11304F0DC012C91269526952770662319F061302E
S1130500C9F031C0DC01EC91E370F0E0EE0FFF1FA5
S1130510E65FFE4F0190F081E02D308181E090E0B4
S113052002C0880F991F2A95E2F780958323808360
S113053080E00895DC01EC91E370F0E0EE0FFF1F22
S1130540E65FFE4F0190F081E02D308181E090E084
S113055002C0880F991F2A95E2F7832B808380E0DD
S1130560089581E0089581E00895009709F466C034
S1130570FC01208126952695277080818295869599
S113058086958370813021F008F18230E1F158C002
S1130590A081A370B0E0AA0FBB1FA05FBE4F0D9057
S11305A0BC91A02D3C9181E090E002C0880F991F7E
S11305B02A95E2F7809583238C93608165FB6627F7
S11305C060F9CF010E94760280E00895A081A370B3
S11305D0B0E0AA0FBB1FA05FBE4F0D90BC91A02D31
S11305E03C9181E090E002C0880F991F2A95E2F7C0
S11305F0832B8C93608165FB662760F9CF010E9491
S1130600760280E00895A081A370B0E0AA0FBB1F1A
S1130610A05FBE4F0D90BC91A02D3C9181E090E075
S113062002C0880F991F2A95E2F7809583238C9343
S113063061E0CF010E94760280E0089581E0089590
S113064081E008950097F1F061157105E9F0FC016E
S11306502081E22FE370F0E0EE0FFF1FEC5FFE4F0E
S11306600190F081E02D808126952695277090E0F9
S113067002C0959587952A95E2F78170FB018083E6
S113068080E0089581E0089581E008951092C50006
S11306908CE08093C400E0ECF0E080818260808391
S11306A0E1ECF0E0808188608083808180618083D8
S11306B0E2ECF0E0808184608083808182608083CA
S11306C080E008959091C00095FFFCCF8093C60010
S11306D080E008950F931F93CF938C01C0E003C073
S11306E00E946203CF5FF801EC0FF11D808181113C
S11306F0F7CFCF911F910F910895CF93DF93CDB78B
S1130700DEB727970FB6F894DEBF0FBECDBF4AE021
S1130710BE016F5F7F4F0E94A403CE0101960E9429
S11307206A038AE00E94620380E027960FB6F89479
S1130730DEBF0FBECDBFDF91CF910895EE0FFF1F37
S11307400590F491E02D0994BB274A3031F49923A4
S113075022F4BDE2909581959F4F0C94B003BB2782
S1130760FB015527AA27880F991FAA1FA41710F069
S1130770A41B83955051B9F7A05DAA3308F0A95D75
S1130780A193009779F7B111B1931192CB010C9415
S1130790C903DC01FC01672F71917723E1F73297DC
S11307A004C07C916D9370836291AE17BF07C8F348
S10907B00895F894FFCF48
S11307B61A5135AA230026002900250028002B00FB
S11307C6240027002A00536F696C204D6F697374E7
S11307D67572652052656164696E672069733A2093
S11307E60A00536F696C206973206472790A005396
S11307F66F696C206973207765740A00536F696C9E
S11308062069732076657279207765740A005461CD
S11108166E6B20697320656D7074790A0000A2
S9030000FC
