S01F0000736D6172742D69727269676174696F6E2D73797374656D2E73726563A7
S11300003AC0000053C0000051C000004FC00000BF
S11300104DC000004BC0000049C0000047C00000B4
S113002045C0000043C0000041C000003FC00000C4
S11300303DC000003BC0000039C0000037C00000D4
S113004035C0000033C0000031C000002FC00000E4
S11300502DC000002BC0000029C0000027C00000F4
S113006025C0000023C0000052015B016701730139
S11300707F018B01970111241FBECFEFD8E0DEBFB3
S1130080CDBF11E0A0E0B1E0E8EAF5E002C00590E0
S11300900D92A031B107D9F721E0A0E1B1E001C090
S11300A01D92A131B207E1F77DD07CC2A9CFCF93D5
S11300B0DF931F92CDB7DEB7FC013081432F43702D
S11300C09981907E232F26952C71942B36FB332710
S11300D030F9922B30FB95F99F739983EF2B29F01C
S11300E0CE010196E7D180E001C081E00F90DF915D
S11300F0CF910895CF93DF931F92CDB7DEB7FC0164
S11301003081432F43709981907E232F26952C7143
S1130110942B36FB332730F9922B30FB95F99F73E0
S11301209983EF2B31F061E0CE01019682D180E01A
S113013001C081E00F90DF91CF910895CF93DF93B9
S11301401F92CDB7DEB7FC013081432F43709981F4
S1130150907E232F26952C71942B36FB332730F970
S1130160922B30FB95F99F739983EF2B31F060E06C
S1130170CE0101965ED180E001C081E00F90DF9155
S1130180CF91089580E191E095D181E091E092D101
S113019082E091E08FD161E082E04FD080E091E095
S11301A086CF0895CF93DF9300D0CDB7DEB7EADFD3
S11301B0BE016F5F7F4F83E0C8D061E082E091E0D1
S11301C038D189819A819C01245B31402D373105D6
S11301D040F461E080E191E02CD180E091E08ADF9D
S11301E022C09C012C5331402837310540F460E093
S11301F080E191E01ED180E091E0A0DF14C0835C37
S113020091098937910540F460E080E191E011D1D2
S113021080E091E093DF07C080E091E08FDF60E051
S113022080E191E006D12FE986E891E021508040F9
S11302309040E1F700C00000BBCFE82FAAE7B0E090
S11302408C9180688C93613071F018F06230A9F061
S11302501EC0ACE7B0E08C918F7B8C938C918F7730
S11302608C9380E015C0ACE7B0E08C9180648C93F3
S11302708C918F778C9380E00BC0ACE7B0E08C91CD
S113028080648C938C9180688C9380E001C081E0C1
S11302904E2F50E04730510508F055C0FA01EC5C90
S11302A0FF4F7AC1EAE7F0E090819B7F90839081D1
S11302B09D7F90830895EAE7F0E090819B7F90838F
S11302C090819260908390819E7F90830895EAE765
S11302D0F0E090819B7F90839081926090839081E5
S11302E0916090830895EAE7F0E0908194609083B0
S11302F090819D7F908390819E7F90830895EAE70B
S1130300F0E090819460908390819D7F90839081B0
S1130310916090830895EAE7F0E09081946090837F
S113032090819260908390819E7F90830895EAE704
S1130330F0E09081946090839081926090839081AA
S113034091609083089581E008956115710509F421
S11303506EC0823039F128F4882351F08130A9F03D
S113036055C08430C9F158F1853009F442C04EC0FB
S1130370ECE7F0E080818E7F808380818D7F8083B5
S113038080818B7F808380E042C0ECE7F0E0808155
S11303908160808380818D7F808380818B7F808357
S11303A080E035C0ECE7F0E080818E7F808380813F
S11303B08260808380818B7F808380E028C0ECE72B
S11303C0F0E080818160808380818260808380818D
S11303D08B7F808380E01BC0ECE7F0E080818E7F20
S11303E0808380818D7F808380818460808380E0AE
S11303F00EC0ECE7F0E080818160808380818D7F96
S1130400808380818460808380E001C081E0EAE7AA
S1130410F0E0908190649083908196FDFDCF2091CF
S1130420780030917900FB0131832083089581E0C5
S11304300895FC01892BD1F190819695969597703A
S1130440662319F06130D1F033C0E081E370F0E04D
S1130450EE0FFF1FED5FFE4F0190F081E02D408114
S113046021E030E0B90102C0660F771F9A95E2F7E8
S1130470CB0180958423808380E00895E081E3703C
S1130480F0E0EE0FFF1FED5FFE4F0190F081E02DD5
S1130490408121E030E0B90102C0660F771F9A95D0
S11304A0E2F7CB01842B808380E0089581E00895F6
S11304B081E00895009709F46BC0FC018081869562
S11304C08695982F977080818295869586958370FE
S11304D0813029F018F1823009F43EC05BC0A0815C
S11304E0A370B0E0AA0FBB1FA75FBE4F0D90BC91D5
S11304F0A02D4C9121E030E0B90102C0660F771FB6
S11305009A95E2F7CB01809584238C93608165FBF7
S1130510662760F9CF018DDF80E00895A081A37084
S1130520B0E0AA0FBB1FA75FBE4F0D90BC91A02DDA
S11305304C9121E030E0B90102C0660F771F9A9513
S1130540E2F7CB01842B8C93608165FB662760F90D
S1130550CF016FDF80E00895A081A370B0E0AA0FFF
S1130560BB1FA75FBE4F0D90BC91A02D4C9121E005
S113057030E0B90102C0660F771F9A95E2F7CB010C
S1130580809584238C9361E0CF0153DF80E008954C
S113059081E0089581E00895EE0FFF1F0590F49126
S10B05A0E02D0994F894FFCF4B
S11305A81A4D35250028002B00240027002A0000B6
S9030000FC
